{
  "_format": "hh-sol-artifact-1",
  "contractName": "NetflixClone",
  "sourceName": "contracts/NetflixClone.sol",
  "abi": [
    {
      "inputs": [],
      "stateMutability": "nonpayable",
      "type": "constructor"
    },
    {
      "inputs": [
        {
          "internalType": "address",
          "name": "_user",
          "type": "address"
        }
      ],
      "name": "assignAdmin",
      "outputs": [],
      "stateMutability": "nonpayable",
      "type": "function"
    },
    {
      "inputs": [],
      "name": "clearAllVideos",
      "outputs": [],
      "stateMutability": "nonpayable",
      "type": "function"
    },
    {
      "inputs": [],
      "name": "getAllVideos",
      "outputs": [
        {
          "internalType": "string[]",
          "name": "",
          "type": "string[]"
        }
      ],
      "stateMutability": "view",
      "type": "function"
    },
    {
      "inputs": [],
      "name": "login",
      "outputs": [],
      "stateMutability": "nonpayable",
      "type": "function"
    },
    {
      "inputs": [],
      "name": "owner",
      "outputs": [
        {
          "internalType": "address",
          "name": "",
          "type": "address"
        }
      ],
      "stateMutability": "view",
      "type": "function"
    },
    {
      "inputs": [],
      "name": "signup",
      "outputs": [],
      "stateMutability": "nonpayable",
      "type": "function"
    },
    {
      "inputs": [
        {
          "internalType": "string",
          "name": "_ipfsHash",
          "type": "string"
        }
      ],
      "name": "uploadVideo",
      "outputs": [],
      "stateMutability": "nonpayable",
      "type": "function"
    },
    {
      "inputs": [
        {
          "internalType": "address",
          "name": "",
          "type": "address"
        }
      ],
      "name": "users",
      "outputs": [
        {
          "internalType": "address",
          "name": "userAddress",
          "type": "address"
        },
        {
          "internalType": "bool",
          "name": "isAdmin",
          "type": "bool"
        }
      ],
      "stateMutability": "view",
      "type": "function"
    },
    {
      "inputs": [
        {
          "internalType": "uint256",
          "name": "",
          "type": "uint256"
        }
      ],
      "name": "videoList",
      "outputs": [
        {
          "internalType": "string",
          "name": "",
          "type": "string"
        }
      ],
      "stateMutability": "view",
      "type": "function"
    }
  ],
  "bytecode": "0x608060405234801561001057600080fd5b50336000806101000a81548173ffffffffffffffffffffffffffffffffffffffff021916908373ffffffffffffffffffffffffffffffffffffffff160217905550604051806040016040528060008054906101000a900473ffffffffffffffffffffffffffffffffffffffff1673ffffffffffffffffffffffffffffffffffffffff16815260200160011515815250600160008060009054906101000a900473ffffffffffffffffffffffffffffffffffffffff1673ffffffffffffffffffffffffffffffffffffffff1673ffffffffffffffffffffffffffffffffffffffff16815260200190815260200160002060008201518160000160006101000a81548173ffffffffffffffffffffffffffffffffffffffff021916908373ffffffffffffffffffffffffffffffffffffffff16021790555060208201518160000160146101000a81548160ff0219169083151502179055509050506113c4806101786000396000f3fe608060405234801561001057600080fd5b50600436106100935760003560e01c8063a87430ba11610066578063a87430ba1461011e578063b34e97e81461014f578063b7bc0f7314610159578063c38e343414610163578063ca28a0a91461018157610093565b80631e18f9cb146100985780633da7d2ed146100b45780638da5cb5b146100d0578063a3996731146100ee575b600080fd5b6100b260048036038101906100ad9190610bf8565b61018b565b005b6100ce60048036038101906100c99190610c9f565b610252565b005b6100d861040f565b6040516100e59190610cdb565b60405180910390f35b61010860048036038101906101039190610d2c565b610433565b6040516101159190610dd8565b60405180910390f35b61013860048036038101906101339190610c9f565b6104df565b604051610146929190610e15565b60405180910390f35b610157610530565b005b6101616106da565b005b61016b610884565b6040516101789190610f4a565b60405180910390f35b61018961095d565b005b600160003373ffffffffffffffffffffffffffffffffffffffff1673ffffffffffffffffffffffffffffffffffffffff16815260200190815260200160002060000160149054906101000a900460ff1661021a576040517f08c379a000000000000000000000000000000000000000000000000000000000815260040161021190610fb8565b60405180910390fd5b60028190806001815401808255809150506001900390600052602060002001600090919091909150908161024e91906111e4565b5050565b600160003373ffffffffffffffffffffffffffffffffffffffff1673ffffffffffffffffffffffffffffffffffffffff16815260200190815260200160002060000160149054906101000a900460ff166102e1576040517f08c379a00000000000000000000000000000000000000000000000000000000081526004016102d890610fb8565b60405180910390fd5b600073ffffffffffffffffffffffffffffffffffffffff16600160008373ffffffffffffffffffffffffffffffffffffffff1673ffffffffffffffffffffffffffffffffffffffff16815260200190815260200160002060000160009054906101000a900473ffffffffffffffffffffffffffffffffffffffff1673ffffffffffffffffffffffffffffffffffffffff16036103b2576040517f08c379a00000000000000000000000000000000000000000000000000000000081526004016103a990611302565b60405180910390fd5b60018060008373ffffffffffffffffffffffffffffffffffffffff1673ffffffffffffffffffffffffffffffffffffffff16815260200190815260200160002060000160146101000a81548160ff02191690831515021790555050565b60008054906101000a900473ffffffffffffffffffffffffffffffffffffffff1681565b6002818154811061044357600080fd5b90600052602060002001600091509050805461045e90611007565b80601f016020809104026020016040519081016040528092919081815260200182805461048a90611007565b80156104d75780601f106104ac576101008083540402835291602001916104d7565b820191906000526020600020905b8154815290600101906020018083116104ba57829003601f168201915b505050505081565b60016020528060005260406000206000915090508060000160009054906101000a900473ffffffffffffffffffffffffffffffffffffffff16908060000160149054906101000a900460ff16905082565b600073ffffffffffffffffffffffffffffffffffffffff16600160003373ffffffffffffffffffffffffffffffffffffffff1673ffffffffffffffffffffffffffffffffffffffff16815260200190815260200160002060000160009054906101000a900473ffffffffffffffffffffffffffffffffffffffff1673ffffffffffffffffffffffffffffffffffffffff1614610601576040517f08c379a00000000000000000000000000000000000000000000000000000000081526004016105f89061136e565b60405180910390fd5b60405180604001604052803373ffffffffffffffffffffffffffffffffffffffff16815260200160001515815250600160003373ffffffffffffffffffffffffffffffffffffffff1673ffffffffffffffffffffffffffffffffffffffff16815260200190815260200160002060008201518160000160006101000a81548173ffffffffffffffffffffffffffffffffffffffff021916908373ffffffffffffffffffffffffffffffffffffffff16021790555060208201518160000160146101000a81548160ff021916908315150217905550905050565b600073ffffffffffffffffffffffffffffffffffffffff16600160003373ffffffffffffffffffffffffffffffffffffffff1673ffffffffffffffffffffffffffffffffffffffff16815260200190815260200160002060000160009054906101000a900473ffffffffffffffffffffffffffffffffffffffff1673ffffffffffffffffffffffffffffffffffffffff16146107ab576040517f08c379a00000000000000000000000000000000000000000000000000000000081526004016107a29061136e565b60405180910390fd5b60405180604001604052803373ffffffffffffffffffffffffffffffffffffffff16815260200160001515815250600160003373ffffffffffffffffffffffffffffffffffffffff1673ffffffffffffffffffffffffffffffffffffffff16815260200190815260200160002060008201518160000160006101000a81548173ffffffffffffffffffffffffffffffffffffffff021916908373ffffffffffffffffffffffffffffffffffffffff16021790555060208201518160000160146101000a81548160ff021916908315150217905550905050565b60606002805480602002602001604051908101604052809291908181526020016000905b828210156109545783829060005260206000200180546108c790611007565b80601f01602080910402602001604051908101604052809291908181526020018280546108f390611007565b80156109405780601f1061091557610100808354040283529160200191610940565b820191906000526020600020905b81548152906001019060200180831161092357829003601f168201915b5050505050815260200190600101906108a8565b50505050905090565b600160003373ffffffffffffffffffffffffffffffffffffffff1673ffffffffffffffffffffffffffffffffffffffff16815260200190815260200160002060000160149054906101000a900460ff166109ec576040517f08c379a00000000000000000000000000000000000000000000000000000000081526004016109e390610fb8565b60405180910390fd5b600260006109fa91906109fc565b565b5080546000825590600052602060002090810190610a1a9190610a1d565b50565b5b80821115610a3d5760008181610a349190610a41565b50600101610a1e565b5090565b508054610a4d90611007565b6000825580601f10610a5f5750610a7e565b601f016020900490600052602060002090810190610a7d9190610a81565b5b50565b5b80821115610a9a576000816000905550600101610a82565b5090565b6000604051905090565b600080fd5b600080fd5b600080fd5b600080fd5b6000601f19601f8301169050919050565b7f4e487b7100000000000000000000000000000000000000000000000000000000600052604160045260246000fd5b610b0582610abc565b810181811067ffffffffffffffff82111715610b2457610b23610acd565b5b80604052505050565b6000610b37610a9e565b9050610b438282610afc565b919050565b600067ffffffffffffffff821115610b6357610b62610acd565b5b610b6c82610abc565b9050602081019050919050565b82818337600083830152505050565b6000610b9b610b9684610b48565b610b2d565b905082815260208101848484011115610bb757610bb6610ab7565b5b610bc2848285610b79565b509392505050565b600082601f830112610bdf57610bde610ab2565b5b8135610bef848260208601610b88565b91505092915050565b600060208284031215610c0e57610c0d610aa8565b5b600082013567ffffffffffffffff811115610c2c57610c2b610aad565b5b610c3884828501610bca565b91505092915050565b600073ffffffffffffffffffffffffffffffffffffffff82169050919050565b6000610c6c82610c41565b9050919050565b610c7c81610c61565b8114610c8757600080fd5b50565b600081359050610c9981610c73565b92915050565b600060208284031215610cb557610cb4610aa8565b5b6000610cc384828501610c8a565b91505092915050565b610cd581610c61565b82525050565b6000602082019050610cf06000830184610ccc565b92915050565b6000819050919050565b610d0981610cf6565b8114610d1457600080fd5b50565b600081359050610d2681610d00565b92915050565b600060208284031215610d4257610d41610aa8565b5b6000610d5084828501610d17565b91505092915050565b600081519050919050565b600082825260208201905092915050565b60005b83811015610d93578082015181840152602081019050610d78565b60008484015250505050565b6000610daa82610d59565b610db48185610d64565b9350610dc4818560208601610d75565b610dcd81610abc565b840191505092915050565b60006020820190508181036000830152610df28184610d9f565b905092915050565b60008115159050919050565b610e0f81610dfa565b82525050565b6000604082019050610e2a6000830185610ccc565b610e376020830184610e06565b9392505050565b600081519050919050565b600082825260208201905092915050565b6000819050602082019050919050565b600082825260208201905092915050565b6000610e8682610d59565b610e908185610e6a565b9350610ea0818560208601610d75565b610ea981610abc565b840191505092915050565b6000610ec08383610e7b565b905092915050565b6000602082019050919050565b6000610ee082610e3e565b610eea8185610e49565b935083602082028501610efc85610e5a565b8060005b85811015610f385784840389528151610f198582610eb4565b9450610f2483610ec8565b925060208a01995050600181019050610f00565b50829750879550505050505092915050565b60006020820190508181036000830152610f648184610ed5565b905092915050565b7f596f7520617265206e6f7420616e2061646d696e000000000000000000000000600082015250565b6000610fa2601483610d64565b9150610fad82610f6c565b602082019050919050565b60006020820190508181036000830152610fd181610f95565b9050919050565b7f4e487b7100000000000000000000000000000000000000000000000000000000600052602260045260246000fd5b6000600282049050600182168061101f57607f821691505b60208210810361103257611031610fd8565b5b50919050565b60008190508160005260206000209050919050565b60006020601f8301049050919050565b600082821b905092915050565b60006008830261109a7fffffffffffffffffffffffffffffffffffffffffffffffffffffffffffffffff8261105d565b6110a4868361105d565b95508019841693508086168417925050509392505050565b6000819050919050565b60006110e16110dc6110d784610cf6565b6110bc565b610cf6565b9050919050565b6000819050919050565b6110fb836110c6565b61110f611107826110e8565b84845461106a565b825550505050565b600090565b611124611117565b61112f8184846110f2565b505050565b5b818110156111535761114860008261111c565b600181019050611135565b5050565b601f8211156111985761116981611038565b6111728461104d565b81016020851015611181578190505b61119561118d8561104d565b830182611134565b50505b505050565b600082821c905092915050565b60006111bb6000198460080261119d565b1980831691505092915050565b60006111d483836111aa565b9150826002028217905092915050565b6111ed82610d59565b67ffffffffffffffff81111561120657611205610acd565b5b6112108254611007565b61121b828285611157565b600060209050601f83116001811461124e576000841561123c578287015190505b61124685826111c8565b8655506112ae565b601f19841661125c86611038565b60005b828110156112845784890151825560018201915060208501945060208101905061125f565b868310156112a1578489015161129d601f8916826111aa565b8355505b6001600288020188555050505b505050505050565b7f55736572206e6f74207265676973746572656400000000000000000000000000600082015250565b60006112ec601383610d64565b91506112f7826112b6565b602082019050919050565b6000602082019050818103600083015261131b816112df565b9050919050565b7f5573657220616c72656164792072656769737465726564000000000000000000600082015250565b6000611358601783610d64565b915061136382611322565b602082019050919050565b600060208201905081810360008301526113878161134b565b905091905056fea2646970667358221220861355564e6d05801119ff3082f59995baeec14353da3755900782bef5b2070e64736f6c63430008140033",
  "linkReferences": {},
  "deployedLinkReferences": {}
}