{
  "_format": "hh-sol-artifact-1",
  "contractName": "NetflixClone",
  "sourceName": "contracts/NetflixClone.sol",
  "abi": [
    {
      "inputs": [],
      "stateMutability": "nonpayable",
      "type": "constructor"
    },
    {
      "inputs": [
        {
          "internalType": "address",
          "name": "_user",
          "type": "address"
        }
      ],
      "name": "assignAdmin",
      "outputs": [],
      "stateMutability": "nonpayable",
      "type": "function"
    },
    {
      "inputs": [],
      "name": "getAllVideos",
      "outputs": [
        {
          "internalType": "string[]",
          "name": "",
          "type": "string[]"
        }
      ],
      "stateMutability": "view",
      "type": "function"
    },
    {
      "inputs": [],
      "name": "login",
      "outputs": [],
      "stateMutability": "nonpayable",
      "type": "function"
    },
    {
      "inputs": [],
      "name": "owner",
      "outputs": [
        {
          "internalType": "address",
          "name": "",
          "type": "address"
        }
      ],
      "stateMutability": "view",
      "type": "function"
    },
    {
      "inputs": [],
      "name": "signup",
      "outputs": [],
      "stateMutability": "nonpayable",
      "type": "function"
    },
    {
      "inputs": [
        {
          "internalType": "string",
          "name": "_ipfsHash",
          "type": "string"
        }
      ],
      "name": "uploadVideo",
      "outputs": [],
      "stateMutability": "nonpayable",
      "type": "function"
    },
    {
      "inputs": [
        {
          "internalType": "address",
          "name": "",
          "type": "address"
        }
      ],
      "name": "users",
      "outputs": [
        {
          "internalType": "address",
          "name": "userAddress",
          "type": "address"
        },
        {
          "internalType": "bool",
          "name": "isAdmin",
          "type": "bool"
        }
      ],
      "stateMutability": "view",
      "type": "function"
    },
    {
      "inputs": [
        {
          "internalType": "uint256",
          "name": "",
          "type": "uint256"
        }
      ],
      "name": "videoList",
      "outputs": [
        {
          "internalType": "string",
          "name": "",
          "type": "string"
        }
      ],
      "stateMutability": "view",
      "type": "function"
    }
  ],
  "bytecode": "0x608060405234801561001057600080fd5b50336000806101000a81548173ffffffffffffffffffffffffffffffffffffffff021916908373ffffffffffffffffffffffffffffffffffffffff160217905550604051806040016040528060008054906101000a900473ffffffffffffffffffffffffffffffffffffffff1673ffffffffffffffffffffffffffffffffffffffff16815260200160011515815250600160008060009054906101000a900473ffffffffffffffffffffffffffffffffffffffff1673ffffffffffffffffffffffffffffffffffffffff1673ffffffffffffffffffffffffffffffffffffffff16815260200190815260200160002060008201518160000160006101000a81548173ffffffffffffffffffffffffffffffffffffffff021916908373ffffffffffffffffffffffffffffffffffffffff16021790555060208201518160000160146101000a81548160ff021916908315150217905550905050611131806101786000396000f3fe608060405234801561001057600080fd5b50600436106100885760003560e01c8063a87430ba1161005b578063a87430ba14610113578063b34e97e814610144578063b7bc0f731461014e578063c38e34341461015857610088565b80631e18f9cb1461008d5780633da7d2ed146100a95780638da5cb5b146100c5578063a3996731146100e3575b600080fd5b6100a760048036038101906100a291906109d1565b610176565b005b6100c360048036038101906100be9190610a78565b61023d565b005b6100cd610329565b6040516100da9190610ab4565b60405180910390f35b6100fd60048036038101906100f89190610b05565b61034d565b60405161010a9190610bb1565b60405180910390f35b61012d60048036038101906101289190610a78565b6103f9565b60405161013b929190610bee565b60405180910390f35b61014c61044a565b005b6101566105f4565b005b61016061079e565b60405161016d9190610d23565b60405180910390f35b600160003373ffffffffffffffffffffffffffffffffffffffff1673ffffffffffffffffffffffffffffffffffffffff16815260200190815260200160002060000160149054906101000a900460ff16610205576040517f08c379a00000000000000000000000000000000000000000000000000000000081526004016101fc90610d91565b60405180910390fd5b6002819080600181540180825580915050600190039060005260206000200160009091909190915090816102399190610fbd565b5050565b600160003373ffffffffffffffffffffffffffffffffffffffff1673ffffffffffffffffffffffffffffffffffffffff16815260200190815260200160002060000160149054906101000a900460ff166102cc576040517f08c379a00000000000000000000000000000000000000000000000000000000081526004016102c390610d91565b60405180910390fd5b60018060008373ffffffffffffffffffffffffffffffffffffffff1673ffffffffffffffffffffffffffffffffffffffff16815260200190815260200160002060000160146101000a81548160ff02191690831515021790555050565b60008054906101000a900473ffffffffffffffffffffffffffffffffffffffff1681565b6002818154811061035d57600080fd5b90600052602060002001600091509050805461037890610de0565b80601f01602080910402602001604051908101604052809291908181526020018280546103a490610de0565b80156103f15780601f106103c6576101008083540402835291602001916103f1565b820191906000526020600020905b8154815290600101906020018083116103d457829003601f168201915b505050505081565b60016020528060005260406000206000915090508060000160009054906101000a900473ffffffffffffffffffffffffffffffffffffffff16908060000160149054906101000a900460ff16905082565b600073ffffffffffffffffffffffffffffffffffffffff16600160003373ffffffffffffffffffffffffffffffffffffffff1673ffffffffffffffffffffffffffffffffffffffff16815260200190815260200160002060000160009054906101000a900473ffffffffffffffffffffffffffffffffffffffff1673ffffffffffffffffffffffffffffffffffffffff161461051b576040517f08c379a0000000000000000000000000000000000000000000000000000000008152600401610512906110db565b60405180910390fd5b60405180604001604052803373ffffffffffffffffffffffffffffffffffffffff16815260200160001515815250600160003373ffffffffffffffffffffffffffffffffffffffff1673ffffffffffffffffffffffffffffffffffffffff16815260200190815260200160002060008201518160000160006101000a81548173ffffffffffffffffffffffffffffffffffffffff021916908373ffffffffffffffffffffffffffffffffffffffff16021790555060208201518160000160146101000a81548160ff021916908315150217905550905050565b600073ffffffffffffffffffffffffffffffffffffffff16600160003373ffffffffffffffffffffffffffffffffffffffff1673ffffffffffffffffffffffffffffffffffffffff16815260200190815260200160002060000160009054906101000a900473ffffffffffffffffffffffffffffffffffffffff1673ffffffffffffffffffffffffffffffffffffffff16146106c5576040517f08c379a00000000000000000000000000000000000000000000000000000000081526004016106bc906110db565b60405180910390fd5b60405180604001604052803373ffffffffffffffffffffffffffffffffffffffff16815260200160001515815250600160003373ffffffffffffffffffffffffffffffffffffffff1673ffffffffffffffffffffffffffffffffffffffff16815260200190815260200160002060008201518160000160006101000a81548173ffffffffffffffffffffffffffffffffffffffff021916908373ffffffffffffffffffffffffffffffffffffffff16021790555060208201518160000160146101000a81548160ff021916908315150217905550905050565b60606002805480602002602001604051908101604052809291908181526020016000905b8282101561086e5783829060005260206000200180546107e190610de0565b80601f016020809104026020016040519081016040528092919081815260200182805461080d90610de0565b801561085a5780601f1061082f5761010080835404028352916020019161085a565b820191906000526020600020905b81548152906001019060200180831161083d57829003601f168201915b5050505050815260200190600101906107c2565b50505050905090565b6000604051905090565b600080fd5b600080fd5b600080fd5b600080fd5b6000601f19601f8301169050919050565b7f4e487b7100000000000000000000000000000000000000000000000000000000600052604160045260246000fd5b6108de82610895565b810181811067ffffffffffffffff821117156108fd576108fc6108a6565b5b80604052505050565b6000610910610877565b905061091c82826108d5565b919050565b600067ffffffffffffffff82111561093c5761093b6108a6565b5b61094582610895565b9050602081019050919050565b82818337600083830152505050565b600061097461096f84610921565b610906565b9050828152602081018484840111156109905761098f610890565b5b61099b848285610952565b509392505050565b600082601f8301126109b8576109b761088b565b5b81356109c8848260208601610961565b91505092915050565b6000602082840312156109e7576109e6610881565b5b600082013567ffffffffffffffff811115610a0557610a04610886565b5b610a11848285016109a3565b91505092915050565b600073ffffffffffffffffffffffffffffffffffffffff82169050919050565b6000610a4582610a1a565b9050919050565b610a5581610a3a565b8114610a6057600080fd5b50565b600081359050610a7281610a4c565b92915050565b600060208284031215610a8e57610a8d610881565b5b6000610a9c84828501610a63565b91505092915050565b610aae81610a3a565b82525050565b6000602082019050610ac96000830184610aa5565b92915050565b6000819050919050565b610ae281610acf565b8114610aed57600080fd5b50565b600081359050610aff81610ad9565b92915050565b600060208284031215610b1b57610b1a610881565b5b6000610b2984828501610af0565b91505092915050565b600081519050919050565b600082825260208201905092915050565b60005b83811015610b6c578082015181840152602081019050610b51565b60008484015250505050565b6000610b8382610b32565b610b8d8185610b3d565b9350610b9d818560208601610b4e565b610ba681610895565b840191505092915050565b60006020820190508181036000830152610bcb8184610b78565b905092915050565b60008115159050919050565b610be881610bd3565b82525050565b6000604082019050610c036000830185610aa5565b610c106020830184610bdf565b9392505050565b600081519050919050565b600082825260208201905092915050565b6000819050602082019050919050565b600082825260208201905092915050565b6000610c5f82610b32565b610c698185610c43565b9350610c79818560208601610b4e565b610c8281610895565b840191505092915050565b6000610c998383610c54565b905092915050565b6000602082019050919050565b6000610cb982610c17565b610cc38185610c22565b935083602082028501610cd585610c33565b8060005b85811015610d115784840389528151610cf28582610c8d565b9450610cfd83610ca1565b925060208a01995050600181019050610cd9565b50829750879550505050505092915050565b60006020820190508181036000830152610d3d8184610cae565b905092915050565b7f596f7520617265206e6f7420616e2061646d696e000000000000000000000000600082015250565b6000610d7b601483610b3d565b9150610d8682610d45565b602082019050919050565b60006020820190508181036000830152610daa81610d6e565b9050919050565b7f4e487b7100000000000000000000000000000000000000000000000000000000600052602260045260246000fd5b60006002820490506001821680610df857607f821691505b602082108103610e0b57610e0a610db1565b5b50919050565b60008190508160005260206000209050919050565b60006020601f8301049050919050565b600082821b905092915050565b600060088302610e737fffffffffffffffffffffffffffffffffffffffffffffffffffffffffffffffff82610e36565b610e7d8683610e36565b95508019841693508086168417925050509392505050565b6000819050919050565b6000610eba610eb5610eb084610acf565b610e95565b610acf565b9050919050565b6000819050919050565b610ed483610e9f565b610ee8610ee082610ec1565b848454610e43565b825550505050565b600090565b610efd610ef0565b610f08818484610ecb565b505050565b5b81811015610f2c57610f21600082610ef5565b600181019050610f0e565b5050565b601f821115610f7157610f4281610e11565b610f4b84610e26565b81016020851015610f5a578190505b610f6e610f6685610e26565b830182610f0d565b50505b505050565b600082821c905092915050565b6000610f9460001984600802610f76565b1980831691505092915050565b6000610fad8383610f83565b9150826002028217905092915050565b610fc682610b32565b67ffffffffffffffff811115610fdf57610fde6108a6565b5b610fe98254610de0565b610ff4828285610f30565b600060209050601f8311600181146110275760008415611015578287015190505b61101f8582610fa1565b865550611087565b601f19841661103586610e11565b60005b8281101561105d57848901518255600182019150602085019450602081019050611038565b8683101561107a5784890151611076601f891682610f83565b8355505b6001600288020188555050505b505050505050565b7f5573657220616c72656164792072656769737465726564000000000000000000600082015250565b60006110c5601783610b3d565b91506110d08261108f565b602082019050919050565b600060208201905081810360008301526110f4816110b8565b905091905056fea2646970667358221220f2d9fbe69ed1b2c60f39f0510a4a2eb70137ab3bb0c9882a0d42ad912df648c364736f6c63430008140033",
  "linkReferences": {},
  "deployedLinkReferences": {}
}